{
  "contractName": "ProductAuth",
  "abi": [
    {
      "anonymous": false,
      "inputs": [
        {
          "indexed": false,
          "internalType": "uint256",
          "name": "productId",
          "type": "uint256"
        },
        {
          "indexed": false,
          "internalType": "address",
          "name": "newOwner",
          "type": "address"
        }
      ],
      "name": "OwnershipTransferred",
      "type": "event"
    },
    {
      "anonymous": false,
      "inputs": [
        {
          "indexed": false,
          "internalType": "uint256",
          "name": "productId",
          "type": "uint256"
        },
        {
          "indexed": false,
          "internalType": "string",
          "name": "productName",
          "type": "string"
        },
        {
          "indexed": false,
          "internalType": "address",
          "name": "manufacturer",
          "type": "address"
        }
      ],
      "name": "ProductRegistered",
      "type": "event"
    },
    {
      "inputs": [
        {
          "internalType": "uint256",
          "name": "",
          "type": "uint256"
        },
        {
          "internalType": "uint256",
          "name": "",
          "type": "uint256"
        }
      ],
      "name": "ownershipHistory",
      "outputs": [
        {
          "internalType": "address",
          "name": "",
          "type": "address"
        }
      ],
      "stateMutability": "view",
      "type": "function"
    },
    {
      "inputs": [
        {
          "internalType": "uint256",
          "name": "",
          "type": "uint256"
        }
      ],
      "name": "products",
      "outputs": [
        {
          "internalType": "uint256",
          "name": "productId",
          "type": "uint256"
        },
        {
          "internalType": "string",
          "name": "productName",
          "type": "string"
        },
        {
          "internalType": "string",
          "name": "manufacturer",
          "type": "string"
        },
        {
          "internalType": "address",
          "name": "currentOwner",
          "type": "address"
        },
        {
          "internalType": "bool",
          "name": "isAuthentic",
          "type": "bool"
        }
      ],
      "stateMutability": "view",
      "type": "function"
    },
    {
      "inputs": [
        {
          "internalType": "uint256",
          "name": "_productId",
          "type": "uint256"
        },
        {
          "internalType": "string",
          "name": "_productName",
          "type": "string"
        },
        {
          "internalType": "string",
          "name": "_manufacturer",
          "type": "string"
        }
      ],
      "name": "registerProduct",
      "outputs": [],
      "stateMutability": "nonpayable",
      "type": "function"
    },
    {
      "inputs": [
        {
          "internalType": "uint256",
          "name": "_productId",
          "type": "uint256"
        },
        {
          "internalType": "address",
          "name": "_newOwner",
          "type": "address"
        }
      ],
      "name": "transferOwnership",
      "outputs": [],
      "stateMutability": "nonpayable",
      "type": "function"
    },
    {
      "inputs": [
        {
          "internalType": "uint256",
          "name": "_productId",
          "type": "uint256"
        }
      ],
      "name": "verifyProduct",
      "outputs": [
        {
          "internalType": "bool",
          "name": "",
          "type": "bool"
        },
        {
          "internalType": "string",
          "name": "",
          "type": "string"
        },
        {
          "internalType": "address",
          "name": "",
          "type": "address"
        }
      ],
      "stateMutability": "view",
      "type": "function"
    },
    {
      "inputs": [
        {
          "internalType": "uint256",
          "name": "_productId",
          "type": "uint256"
        }
      ],
      "name": "getOwnershipHistory",
      "outputs": [
        {
          "internalType": "address[]",
          "name": "",
          "type": "address[]"
        }
      ],
      "stateMutability": "view",
      "type": "function"
    }
  ],
  "bytecode": "0x608060405234801561001057600080fd5b506111f7806100206000396000f3fe608060405234801561001057600080fd5b50600436106100625760003560e01c806329507f7314610067578063524e8462146100835780637acc0b20146100b5578063c9cf2adc146100e9578063e9f49f9614610119578063f1dbaccb14610135575b600080fd5b610081600480360381019061007c9190610b6d565b610165565b005b61009d60048036038101906100989190610b44565b610366565b6040516100ac93929190610e4c565b60405180910390f35b6100cf60048036038101906100ca9190610b44565b6105a1565b6040516100e0959493929190610f51565b60405180910390f35b61010360048036038101906100fe9190610c28565b610714565b6040516101109190610e0f565b60405180910390f35b610133600480360381019061012e9190610ba9565b610762565b005b61014f600480360381019061014a9190610b44565b61096e565b60405161015c9190610e2a565b60405180910390f35b60008060008481526020019081526020016000206000015414156101be576040517f08c379a00000000000000000000000000000000000000000000000000000000081526004016101b590610e8a565b60405180910390fd5b3373ffffffffffffffffffffffffffffffffffffffff1660008084815260200190815260200160002060030160009054906101000a900473ffffffffffffffffffffffffffffffffffffffff1673ffffffffffffffffffffffffffffffffffffffff1614610261576040517f08c379a000000000000000000000000000000000000000000000000000000000815260040161025890610eaa565b60405180910390fd5b8060008084815260200190815260200160002060030160006101000a81548173ffffffffffffffffffffffffffffffffffffffff021916908373ffffffffffffffffffffffffffffffffffffffff16021790555060016000838152602001908152602001600020819080600181540180825580915050600190039060005260206000200160009091909190916101000a81548173ffffffffffffffffffffffffffffffffffffffff021916908373ffffffffffffffffffffffffffffffffffffffff1602179055507fba8cc72bdfdb4f3e2281c3f17f6be90c470f76dd1106321a2928859835874bc2828260405161035a929190610eea565b60405180910390a15050565b600060606000806000808681526020019081526020016000206000015414156103c4576040517f08c379a00000000000000000000000000000000000000000000000000000000081526004016103bb90610e8a565b60405180910390fd5b60008060008681526020019081526020016000206040518060a0016040529081600082015481526020016001820180546103fd906110f2565b80601f0160208091040260200160405190810160405280929190818152602001828054610429906110f2565b80156104765780601f1061044b57610100808354040283529160200191610476565b820191906000526020600020905b81548152906001019060200180831161045957829003601f168201915b5050505050815260200160028201805461048f906110f2565b80601f01602080910402602001604051908101604052809291908181526020018280546104bb906110f2565b80156105085780601f106104dd57610100808354040283529160200191610508565b820191906000526020600020905b8154815290600101906020018083116104eb57829003601f168201915b505050505081526020016003820160009054906101000a900473ffffffffffffffffffffffffffffffffffffffff1673ffffffffffffffffffffffffffffffffffffffff1673ffffffffffffffffffffffffffffffffffffffff1681526020016003820160149054906101000a900460ff1615151515815250509050806080015181602001518260600151935093509350509193909250565b60006020528060005260406000206000915090508060000154908060010180546105ca906110f2565b80601f01602080910402602001604051908101604052809291908181526020018280546105f6906110f2565b80156106435780601f1061061857610100808354040283529160200191610643565b820191906000526020600020905b81548152906001019060200180831161062657829003601f168201915b505050505090806002018054610658906110f2565b80601f0160208091040260200160405190810160405280929190818152602001828054610684906110f2565b80156106d15780601f106106a6576101008083540402835291602001916106d1565b820191906000526020600020905b8154815290600101906020018083116106b457829003601f168201915b5050505050908060030160009054906101000a900473ffffffffffffffffffffffffffffffffffffffff16908060030160149054906101000a900460ff16905085565b6001602052816000526040600020818154811061073057600080fd5b906000526020600020016000915091509054906101000a900473ffffffffffffffffffffffffffffffffffffffff1681565b600080600085815260200190815260200160002060000154146107ba576040517f08c379a00000000000000000000000000000000000000000000000000000000081526004016107b190610eca565b60405180910390fd5b6040518060a001604052808481526020018381526020018281526020013373ffffffffffffffffffffffffffffffffffffffff16815260200160011515815250600080858152602001908152602001600020600082015181600001556020820151816001019080519060200190610832929190610a0f565b50604082015181600201908051906020019061084f929190610a0f565b5060608201518160030160006101000a81548173ffffffffffffffffffffffffffffffffffffffff021916908373ffffffffffffffffffffffffffffffffffffffff16021790555060808201518160030160146101000a81548160ff02191690831515021790555090505060016000848152602001908152602001600020339080600181540180825580915050600190039060005260206000200160009091909190916101000a81548173ffffffffffffffffffffffffffffffffffffffff021916908373ffffffffffffffffffffffffffffffffffffffff1602179055507fd810998a0248808a33b20218e71759cb2ec1a182b398350ad606d742587c012c83833360405161096193929190610f13565b60405180910390a1505050565b606060016000838152602001908152602001600020805480602002602001604051908101604052809291908181526020018280548015610a0357602002820191906000526020600020905b8160009054906101000a900473ffffffffffffffffffffffffffffffffffffffff1673ffffffffffffffffffffffffffffffffffffffff16815260200190600101908083116109b9575b50505050509050919050565b828054610a1b906110f2565b90600052602060002090601f016020900481019282610a3d5760008555610a84565b82601f10610a5657805160ff1916838001178555610a84565b82800160010185558215610a84579182015b82811115610a83578251825591602001919060010190610a68565b5b509050610a919190610a95565b5090565b5b80821115610aae576000816000905550600101610a96565b5090565b6000610ac5610ac084610fe3565b610fb2565b905082815260208101848484011115610add57600080fd5b610ae88482856110b0565b509392505050565b600081359050610aff81611193565b92915050565b600082601f830112610b1657600080fd5b8135610b26848260208601610ab2565b91505092915050565b600081359050610b3e816111aa565b92915050565b600060208284031215610b5657600080fd5b6000610b6484828501610b2f565b91505092915050565b60008060408385031215610b8057600080fd5b6000610b8e85828601610b2f565b9250506020610b9f85828601610af0565b9150509250929050565b600080600060608486031215610bbe57600080fd5b6000610bcc86828701610b2f565b935050602084013567ffffffffffffffff811115610be957600080fd5b610bf586828701610b05565b925050604084013567ffffffffffffffff811115610c1257600080fd5b610c1e86828701610b05565b9150509250925092565b60008060408385031215610c3b57600080fd5b6000610c4985828601610b2f565b9250506020610c5a85828601610b2f565b9150509250929050565b6000610c708383610c7c565b60208301905092915050565b610c8581611068565b82525050565b610c9481611068565b82525050565b6000610ca582611023565b610caf8185611046565b9350610cba83611013565b8060005b83811015610ceb578151610cd28882610c64565b9750610cdd83611039565b925050600181019050610cbe565b5085935050505092915050565b610d018161107a565b82525050565b6000610d128261102e565b610d1c8185611057565b9350610d2c8185602086016110bf565b610d3581611182565b840191505092915050565b6000610d4d601683611057565b91507f50726f6475637420646f6573206e6f74206578697374000000000000000000006000830152602082019050919050565b6000610d8d601583611057565b91507f4e6f74207468652063757272656e74206f776e657200000000000000000000006000830152602082019050919050565b6000610dcd601683611057565b91507f50726f6475637420616c726561647920657869737473000000000000000000006000830152602082019050919050565b610e09816110a6565b82525050565b6000602082019050610e246000830184610c8b565b92915050565b60006020820190508181036000830152610e448184610c9a565b905092915050565b6000606082019050610e616000830186610cf8565b8181036020830152610e738185610d07565b9050610e826040830184610c8b565b949350505050565b60006020820190508181036000830152610ea381610d40565b9050919050565b60006020820190508181036000830152610ec381610d80565b9050919050565b60006020820190508181036000830152610ee381610dc0565b9050919050565b6000604082019050610eff6000830185610e00565b610f0c6020830184610c8b565b9392505050565b6000606082019050610f286000830186610e00565b8181036020830152610f3a8185610d07565b9050610f496040830184610c8b565b949350505050565b600060a082019050610f666000830188610e00565b8181036020830152610f788187610d07565b90508181036040830152610f8c8186610d07565b9050610f9b6060830185610c8b565b610fa86080830184610cf8565b9695505050505050565b6000604051905081810181811067ffffffffffffffff82111715610fd957610fd8611153565b5b8060405250919050565b600067ffffffffffffffff821115610ffe57610ffd611153565b5b601f19601f8301169050602081019050919050565b6000819050602082019050919050565b600081519050919050565b600081519050919050565b6000602082019050919050565b600082825260208201905092915050565b600082825260208201905092915050565b600061107382611086565b9050919050565b60008115159050919050565b600073ffffffffffffffffffffffffffffffffffffffff82169050919050565b6000819050919050565b82818337600083830152505050565b60005b838110156110dd5780820151818401526020810190506110c2565b838111156110ec576000848401525b50505050565b6000600282049050600182168061110a57607f821691505b6020821081141561111e5761111d611124565b5b50919050565b7f4e487b7100000000000000000000000000000000000000000000000000000000600052602260045260246000fd5b7f4e487b7100000000000000000000000000000000000000000000000000000000600052604160045260246000fd5b6000601f19601f8301169050919050565b61119c81611068565b81146111a757600080fd5b50565b6111b3816110a6565b81146111be57600080fd5b5056fea26469706673582212200039d635a384c8e5b01a152fb8ea0281392e2d1a65d9f2dd71955c4e85d8ca8d64736f6c63430008000033",
  "immutableReferences": {},
  "source": "// SPDX-License-Identifier: MIT\r\npragma solidity ^0.8.0;\r\n\r\ncontract ProductAuth {\r\n    struct Product {\r\n        uint256 productId;\r\n        string productName;\r\n        string manufacturer;\r\n        address currentOwner;\r\n        bool isAuthentic;\r\n    }\r\n\r\n    mapping(uint256 => Product) public products;\r\n    mapping(uint256 => address[]) public ownershipHistory;\r\n\r\n    event ProductRegistered(uint256 productId, string productName, address manufacturer);\r\n    event OwnershipTransferred(uint256 productId, address newOwner);\r\n\r\n    function registerProduct(uint256 _productId, string memory _productName, string memory _manufacturer) public {\r\n        require(products[_productId].productId == 0, \"Product already exists\");\r\n        products[_productId] = Product(_productId, _productName, _manufacturer, msg.sender, true);\r\n        ownershipHistory[_productId].push(msg.sender);\r\n\r\n        emit ProductRegistered(_productId, _productName, msg.sender);\r\n    }\r\n\r\n    function transferOwnership(uint256 _productId, address _newOwner) public {\r\n        require(products[_productId].productId != 0, \"Product does not exist\");\r\n        require(products[_productId].currentOwner == msg.sender, \"Not the current owner\");\r\n\r\n        products[_productId].currentOwner = _newOwner;\r\n        ownershipHistory[_productId].push(_newOwner);\r\n\r\n        emit OwnershipTransferred(_productId, _newOwner);\r\n    }\r\n\r\n    function verifyProduct(uint256 _productId) public view returns (bool, string memory, address) {\r\n        require(products[_productId].productId != 0, \"Product does not exist\");\r\n        Product memory product = products[_productId];\r\n        return (product.isAuthentic, product.productName, product.currentOwner);\r\n    }\r\n\r\n    function getOwnershipHistory(uint256 _productId) public view returns (address[] memory) {\r\n        return ownershipHistory[_productId];\r\n    }\r\n}\r\n",
  "sourcePath": "C:\\Users\\asus\\OneDrive\\Desktop\\Main Project Outer folder\\product-auth-blockchain\\contracts\\ProductAuth.sol",
  "compiler": {
    "name": "solc",
    "version": "0.8.0+commit.c7dfd78e.Emscripten.clang"
  },
  "schemaVersion": "3.4.16",
  "updatedAt": "2025-01-24T07:35:06.180Z",
  "devdoc": {
    "kind": "dev",
    "methods": {},
    "version": 1
  },
  "userdoc": {
    "kind": "user",
    "methods": {},
    "version": 1
  }
}