{
  "contractName": "ProductAuth",
  "abi": [
    {
      "anonymous": false,
      "inputs": [
        {
          "indexed": false,
          "internalType": "uint256",
          "name": "productId",
          "type": "uint256"
        },
        {
          "indexed": false,
          "internalType": "address",
          "name": "newOwner",
          "type": "address"
        }
      ],
      "name": "OwnershipTransferred",
      "type": "event"
    },
    {
      "anonymous": false,
      "inputs": [
        {
          "indexed": false,
          "internalType": "uint256",
          "name": "productId",
          "type": "uint256"
        },
        {
          "indexed": false,
          "internalType": "string",
          "name": "productName",
          "type": "string"
        },
        {
          "indexed": false,
          "internalType": "address",
          "name": "manufacturer",
          "type": "address"
        }
      ],
      "name": "ProductRegistered",
      "type": "event"
    },
    {
      "inputs": [
        {
          "internalType": "uint256",
          "name": "",
          "type": "uint256"
        },
        {
          "internalType": "uint256",
          "name": "",
          "type": "uint256"
        }
      ],
      "name": "ownershipHistory",
      "outputs": [
        {
          "internalType": "address",
          "name": "",
          "type": "address"
        }
      ],
      "stateMutability": "view",
      "type": "function",
      "constant": true
    },
    {
      "inputs": [
        {
          "internalType": "uint256",
          "name": "",
          "type": "uint256"
        }
      ],
      "name": "products",
      "outputs": [
        {
          "internalType": "uint256",
          "name": "productId",
          "type": "uint256"
        },
        {
          "internalType": "string",
          "name": "productName",
          "type": "string"
        },
        {
          "internalType": "string",
          "name": "manufacturer",
          "type": "string"
        },
        {
          "internalType": "address",
          "name": "currentOwner",
          "type": "address"
        },
        {
          "internalType": "bool",
          "name": "isAuthentic",
          "type": "bool"
        }
      ],
      "stateMutability": "view",
      "type": "function",
      "constant": true
    },
    {
      "inputs": [
        {
          "internalType": "uint256",
          "name": "_productId",
          "type": "uint256"
        },
        {
          "internalType": "string",
          "name": "_productName",
          "type": "string"
        },
        {
          "internalType": "string",
          "name": "_manufacturer",
          "type": "string"
        }
      ],
      "name": "registerProduct",
      "outputs": [],
      "stateMutability": "nonpayable",
      "type": "function"
    },
    {
      "inputs": [
        {
          "internalType": "uint256",
          "name": "_productId",
          "type": "uint256"
        },
        {
          "internalType": "address",
          "name": "_newOwner",
          "type": "address"
        }
      ],
      "name": "transferOwnership",
      "outputs": [],
      "stateMutability": "nonpayable",
      "type": "function"
    },
    {
      "inputs": [
        {
          "internalType": "uint256",
          "name": "_productId",
          "type": "uint256"
        }
      ],
      "name": "verifyProduct",
      "outputs": [
        {
          "internalType": "bool",
          "name": "",
          "type": "bool"
        },
        {
          "internalType": "string",
          "name": "",
          "type": "string"
        },
        {
          "internalType": "address",
          "name": "",
          "type": "address"
        }
      ],
      "stateMutability": "view",
      "type": "function",
      "constant": true
    },
    {
      "inputs": [
        {
          "internalType": "uint256",
          "name": "_productId",
          "type": "uint256"
        }
      ],
      "name": "getOwnershipHistory",
      "outputs": [
        {
          "internalType": "address[]",
          "name": "",
          "type": "address[]"
        }
      ],
      "stateMutability": "view",
      "type": "function",
      "constant": true
    }
  ],
  "bytecode": "0x608060405234801561001057600080fd5b50611436806100206000396000f3fe608060405234801561001057600080fd5b50600436106100625760003560e01c806329507f7314610067578063524e8462146100835780637acc0b20146100b5578063c9cf2adc146100e9578063e9f49f9614610119578063f1dbaccb14610135575b600080fd5b610081600480360381019061007c9190610aa7565b610165565b005b61009d60048036038101906100989190610ae7565b610365565b6040516100ac93929190610bce565b60405180910390f35b6100cf60048036038101906100ca9190610ae7565b61059f565b6040516100e0959493929190610c1b565b60405180910390f35b61010360048036038101906100fe9190610c7c565b610712565b6040516101109190610cbc565b60405180910390f35b610133600480360381019061012e9190610e0c565b610760565b005b61014f600480360381019061014a9190610ae7565b61095e565b60405161015c9190610f55565b60405180910390f35b600080600084815260200190815260200160002060000154036101bd576040517f08c379a00000000000000000000000000000000000000000000000000000000081526004016101b490610fc3565b60405180910390fd5b3373ffffffffffffffffffffffffffffffffffffffff1660008084815260200190815260200160002060030160009054906101000a900473ffffffffffffffffffffffffffffffffffffffff1673ffffffffffffffffffffffffffffffffffffffff1614610260576040517f08c379a00000000000000000000000000000000000000000000000000000000081526004016102579061102f565b60405180910390fd5b8060008084815260200190815260200160002060030160006101000a81548173ffffffffffffffffffffffffffffffffffffffff021916908373ffffffffffffffffffffffffffffffffffffffff16021790555060016000838152602001908152602001600020819080600181540180825580915050600190039060005260206000200160009091909190916101000a81548173ffffffffffffffffffffffffffffffffffffffff021916908373ffffffffffffffffffffffffffffffffffffffff1602179055507fba8cc72bdfdb4f3e2281c3f17f6be90c470f76dd1106321a2928859835874bc2828260405161035992919061104f565b60405180910390a15050565b6000606060008060008086815260200190815260200160002060000154036103c2576040517f08c379a00000000000000000000000000000000000000000000000000000000081526004016103b990610fc3565b60405180910390fd5b60008060008681526020019081526020016000206040518060a0016040529081600082015481526020016001820180546103fb906110a7565b80601f0160208091040260200160405190810160405280929190818152602001828054610427906110a7565b80156104745780601f1061044957610100808354040283529160200191610474565b820191906000526020600020905b81548152906001019060200180831161045757829003601f168201915b5050505050815260200160028201805461048d906110a7565b80601f01602080910402602001604051908101604052809291908181526020018280546104b9906110a7565b80156105065780601f106104db57610100808354040283529160200191610506565b820191906000526020600020905b8154815290600101906020018083116104e957829003601f168201915b505050505081526020016003820160009054906101000a900473ffffffffffffffffffffffffffffffffffffffff1673ffffffffffffffffffffffffffffffffffffffff1673ffffffffffffffffffffffffffffffffffffffff1681526020016003820160149054906101000a900460ff1615151515815250509050806080015181602001518260600151935093509350509193909250565b60006020528060005260406000206000915090508060000154908060010180546105c8906110a7565b80601f01602080910402602001604051908101604052809291908181526020018280546105f4906110a7565b80156106415780601f1061061657610100808354040283529160200191610641565b820191906000526020600020905b81548152906001019060200180831161062457829003601f168201915b505050505090806002018054610656906110a7565b80601f0160208091040260200160405190810160405280929190818152602001828054610682906110a7565b80156106cf5780601f106106a4576101008083540402835291602001916106cf565b820191906000526020600020905b8154815290600101906020018083116106b257829003601f168201915b5050505050908060030160009054906101000a900473ffffffffffffffffffffffffffffffffffffffff16908060030160149054906101000a900460ff16905085565b6001602052816000526040600020818154811061072e57600080fd5b906000526020600020016000915091509054906101000a900473ffffffffffffffffffffffffffffffffffffffff1681565b600080600085815260200190815260200160002060000154146107b8576040517f08c379a00000000000000000000000000000000000000000000000000000000081526004016107af90611124565b60405180910390fd5b6040518060a001604052808481526020018381526020018281526020013373ffffffffffffffffffffffffffffffffffffffff1681526020016001151581525060008085815260200190815260200160002060008201518160000155602082015181600101908161082991906112f0565b50604082015181600201908161083f91906112f0565b5060608201518160030160006101000a81548173ffffffffffffffffffffffffffffffffffffffff021916908373ffffffffffffffffffffffffffffffffffffffff16021790555060808201518160030160146101000a81548160ff02191690831515021790555090505060016000848152602001908152602001600020339080600181540180825580915050600190039060005260206000200160009091909190916101000a81548173ffffffffffffffffffffffffffffffffffffffff021916908373ffffffffffffffffffffffffffffffffffffffff1602179055507fd810998a0248808a33b20218e71759cb2ec1a182b398350ad606d742587c012c838333604051610951939291906113c2565b60405180910390a1505050565b6060600160008381526020019081526020016000208054806020026020016040519081016040528092919081815260200182805480156109f357602002820191906000526020600020905b8160009054906101000a900473ffffffffffffffffffffffffffffffffffffffff1673ffffffffffffffffffffffffffffffffffffffff16815260200190600101908083116109a9575b50505050509050919050565b6000604051905090565b600080fd5b600080fd5b6000819050919050565b610a2681610a13565b8114610a3157600080fd5b50565b600081359050610a4381610a1d565b92915050565b600073ffffffffffffffffffffffffffffffffffffffff82169050919050565b6000610a7482610a49565b9050919050565b610a8481610a69565b8114610a8f57600080fd5b50565b600081359050610aa181610a7b565b92915050565b60008060408385031215610abe57610abd610a09565b5b6000610acc85828601610a34565b9250506020610add85828601610a92565b9150509250929050565b600060208284031215610afd57610afc610a09565b5b6000610b0b84828501610a34565b91505092915050565b60008115159050919050565b610b2981610b14565b82525050565b600081519050919050565b600082825260208201905092915050565b60005b83811015610b69578082015181840152602081019050610b4e565b60008484015250505050565b6000601f19601f8301169050919050565b6000610b9182610b2f565b610b9b8185610b3a565b9350610bab818560208601610b4b565b610bb481610b75565b840191505092915050565b610bc881610a69565b82525050565b6000606082019050610be36000830186610b20565b8181036020830152610bf58185610b86565b9050610c046040830184610bbf565b949350505050565b610c1581610a13565b82525050565b600060a082019050610c306000830188610c0c565b8181036020830152610c428187610b86565b90508181036040830152610c568186610b86565b9050610c656060830185610bbf565b610c726080830184610b20565b9695505050505050565b60008060408385031215610c9357610c92610a09565b5b6000610ca185828601610a34565b9250506020610cb285828601610a34565b9150509250929050565b6000602082019050610cd16000830184610bbf565b92915050565b600080fd5b600080fd5b7f4e487b7100000000000000000000000000000000000000000000000000000000600052604160045260246000fd5b610d1982610b75565b810181811067ffffffffffffffff82111715610d3857610d37610ce1565b5b80604052505050565b6000610d4b6109ff565b9050610d578282610d10565b919050565b600067ffffffffffffffff821115610d7757610d76610ce1565b5b610d8082610b75565b9050602081019050919050565b82818337600083830152505050565b6000610daf610daa84610d5c565b610d41565b905082815260208101848484011115610dcb57610dca610cdc565b5b610dd6848285610d8d565b509392505050565b600082601f830112610df357610df2610cd7565b5b8135610e03848260208601610d9c565b91505092915050565b600080600060608486031215610e2557610e24610a09565b5b6000610e3386828701610a34565b935050602084013567ffffffffffffffff811115610e5457610e53610a0e565b5b610e6086828701610dde565b925050604084013567ffffffffffffffff811115610e8157610e80610a0e565b5b610e8d86828701610dde565b9150509250925092565b600081519050919050565b600082825260208201905092915050565b6000819050602082019050919050565b610ecc81610a69565b82525050565b6000610ede8383610ec3565b60208301905092915050565b6000602082019050919050565b6000610f0282610e97565b610f0c8185610ea2565b9350610f1783610eb3565b8060005b83811015610f48578151610f2f8882610ed2565b9750610f3a83610eea565b925050600181019050610f1b565b5085935050505092915050565b60006020820190508181036000830152610f6f8184610ef7565b905092915050565b7f50726f6475637420646f6573206e6f7420657869737400000000000000000000600082015250565b6000610fad601683610b3a565b9150610fb882610f77565b602082019050919050565b60006020820190508181036000830152610fdc81610fa0565b9050919050565b7f4e6f74207468652063757272656e74206f776e65720000000000000000000000600082015250565b6000611019601583610b3a565b915061102482610fe3565b602082019050919050565b600060208201905081810360008301526110488161100c565b9050919050565b60006040820190506110646000830185610c0c565b6110716020830184610bbf565b9392505050565b7f4e487b7100000000000000000000000000000000000000000000000000000000600052602260045260246000fd5b600060028204905060018216806110bf57607f821691505b6020821081036110d2576110d1611078565b5b50919050565b7f50726f6475637420616c72656164792065786973747300000000000000000000600082015250565b600061110e601683610b3a565b9150611119826110d8565b602082019050919050565b6000602082019050818103600083015261113d81611101565b9050919050565b60008190508160005260206000209050919050565b60006020601f8301049050919050565b600082821b905092915050565b6000600883026111a67fffffffffffffffffffffffffffffffffffffffffffffffffffffffffffffffff82611169565b6111b08683611169565b95508019841693508086168417925050509392505050565b6000819050919050565b60006111ed6111e86111e384610a13565b6111c8565b610a13565b9050919050565b6000819050919050565b611207836111d2565b61121b611213826111f4565b848454611176565b825550505050565b600090565b611230611223565b61123b8184846111fe565b505050565b5b8181101561125f57611254600082611228565b600181019050611241565b5050565b601f8211156112a45761127581611144565b61127e84611159565b8101602085101561128d578190505b6112a161129985611159565b830182611240565b50505b505050565b600082821c905092915050565b60006112c7600019846008026112a9565b1980831691505092915050565b60006112e083836112b6565b9150826002028217905092915050565b6112f982610b2f565b67ffffffffffffffff81111561131257611311610ce1565b5b61131c82546110a7565b611327828285611263565b600060209050601f83116001811461135a5760008415611348578287015190505b61135285826112d4565b8655506113ba565b601f19841661136886611144565b60005b828110156113905784890151825560018201915060208501945060208101905061136b565b868310156113ad57848901516113a9601f8916826112b6565b8355505b6001600288020188555050505b505050505050565b60006060820190506113d76000830186610c0c565b81810360208301526113e98185610b86565b90506113f86040830184610bbf565b94935050505056fea2646970667358221220f87db01b77b4691a2503ac3b488762c5da965bc9b198a15bd6319b7678514e8364736f6c63430008120033",
  "immutableReferences": {},
  "source": "// SPDX-License-Identifier: MIT\r\npragma solidity ^0.8.0;\r\n\r\ncontract ProductAuth {\r\n    struct Product {\r\n        uint256 productId;\r\n        string productName;\r\n        string manufacturer;\r\n        address currentOwner;\r\n        bool isAuthentic;\r\n    }\r\n\r\n    mapping(uint256 => Product) public products;\r\n    mapping(uint256 => address[]) public ownershipHistory;\r\n\r\n    event ProductRegistered(uint256 productId, string productName, address manufacturer);\r\n    event OwnershipTransferred(uint256 productId, address newOwner);\r\n\r\n    function registerProduct(uint256 _productId, string memory _productName, string memory _manufacturer) public {\r\n        require(products[_productId].productId == 0, \"Product already exists\");\r\n        products[_productId] = Product(_productId, _productName, _manufacturer, msg.sender, true);\r\n        ownershipHistory[_productId].push(msg.sender);\r\n\r\n        emit ProductRegistered(_productId, _productName, msg.sender);\r\n    }\r\n\r\n    function transferOwnership(uint256 _productId, address _newOwner) public {\r\n        require(products[_productId].productId != 0, \"Product does not exist\");\r\n        require(products[_productId].currentOwner == msg.sender, \"Not the current owner\");\r\n\r\n        products[_productId].currentOwner = _newOwner;\r\n        ownershipHistory[_productId].push(_newOwner);\r\n\r\n        emit OwnershipTransferred(_productId, _newOwner);\r\n    }\r\n\r\n    function verifyProduct(uint256 _productId) public view returns (bool, string memory, address) {\r\n        require(products[_productId].productId != 0, \"Product does not exist\");\r\n        Product memory product = products[_productId];\r\n        return (product.isAuthentic, product.productName, product.currentOwner);\r\n    }\r\n\r\n    function getOwnershipHistory(uint256 _productId) public view returns (address[] memory) {\r\n        return ownershipHistory[_productId];\r\n    }\r\n}\r\n",
  "sourcePath": "C:\\Users\\asus\\OneDrive\\Pictures\\Screenshots\\Parallel project for QR verfication\\product-auth-blockchain\\contracts\\ProductAuth.sol",
  "compiler": {
    "name": "solc",
    "version": "0.8.18+commit.87f61d96.Emscripten.clang"
  },
  "schemaVersion": "3.4.16",
  "updatedAt": "2025-03-19T04:25:15.223Z",
  "networkType": "ethereum",
  "devdoc": {
    "kind": "dev",
    "methods": {},
    "version": 1
  },
  "userdoc": {
    "kind": "user",
    "methods": {},
    "version": 1
  }
}